:1000000000800020BD0100002D200000E51F000041
:10001000E51F0000E51F0000E51F0000E51F0000D0
:10002000E51F0000E51F0000E51F00002D20000077
:100030002D200000E51F0000553D0000593D000047
:100040002D2000002D2000002D2000002D2000007C
:100050002D2000002D2000002D2000002D2000006C
:100060002D2000002D2000002D2000002D2000005C
:100070002D2000002D2000002D2000002D2000004C
:100080002D2000002D2000002D2000002D2000003C
:100090002D2000002D2000002D2000002D2000002C
:1000A000991E0000A51E00002D2000002D2000003C
:1000B0002D2000002D2000002D2000002D2000000C
:1000C0002D2000002D2000002D2000002D200000FC
:1000D0002D2000002D2000002D2000002D200000EC
:1000E0002D2000002D2000002D2000002D200000DC
:1000F0002D200000692B00002D2000002D20000085
:100100002D2000002D2000002D2000002D200000BB
:100110002D2000002D2000002D2000002D200000AB
:100120002D2000002D2000002D2000002D2000009B
:100130002D2000002D2000002D2000002D2000008B
:100140002D2000002D2000002D2000002D2000007B
:100150002D2000002D2000002D2000002D2000006B
:100160002D2000002D2E00002D2000002D2000004D
:100170002D2000002D2000002D2000002D2000004B
:100180002D2000002D2000002D2000002D2000003B
:100190002D2000002D2000002D2000002D2000002B
:1001A0002D2000002D2000002D2000002D2000001B
:1001B0002D2000002D2000002D200000564B4CF279
:1001C000205210B51A804DF628121A8000BF00BFC9
:1001D00001F030FF514B4FF010621A60504A9A60A4
:1001E000504ADA60504A136813F4807304D14F49BF
:1001F0000B604FF4A85313604D4B1A78110703D5C9
:100200001A7842F008021A704A4B4B492A221A7097
:100210004A4A4B4B8B4204D252F8040F43F8040B6A
:10022000F8E7484B484900228B4202D243F8042B9E
:10023000FAE74649464A002352F8230041F82300D2
:1002400001336F2BF8D1434B434A802103F8011B44
:100250009342FBD1414B3D4A1A60414B8A221A70AE
:10026000A3F5805324225A70A0221A709A7992071B
:10027000FCD59A79D406FCD43A4A937903F00C035E
:10028000082B384BF9D103221A7140225A719A79FE
:100290009006FCD5334A9179324B4906FBD5324A58
:1002A000324911600221516020221A709A7902F0BD
:1002B0000C020C2AFAD12E4B2E4A1A602E4B2F4AD2
:1002C0001A6000225A60072243F8042C2C4AC3F813
:1002D0000C2D62B602F0A6F8144B1B68DA0705D5A0
:1002E000284802F003F8284B284A1A60284B1B784C
:1002F0005B0609D5244C254B22689A4204D121483B
:1003000001F0F4FF0023236004F0B4FC01F098FE38
:1003100003F07AFEFEE700BF0E2005403080044067
:10032000823F04000100002B10D0034014D0034092
:1003300002D0074000E007404094FF1F7496000081
:100340002087FF1F4094FF1F5CA2FF1F0082FF1F3A
:100350000000000000E400E05FE400E008ED00E0E1
:100360000050064000400640448004400000030165
:1003700004800440C010050014E000E0FF76010096
:10038000000020207A7A8E5F1CE00340A5C3945AB7
:1003900000F00740FFFFFFFFFFFFFFFFFFFFFFFF32
:1003A000FFFFFFFFFFFFFFFFFFFFFFFFFFFFFFFF5D
:1003B000FFFFFFFFFFFFFFFFFFFFFFFFFFFFFFFF4D
:1003C000FFFFFFFFFFFFFFFFFFFFFFFFFFFFFFFF3D
:1003D000FFFFFFFFFFFFFFFFFFFFFFFFFFFFFFFF2D
:1003E000FFFFFFFFFFFFFFFFFFFFFFFFFFFFFFFF1D
:1003F000FFFFFFFFFFFFFFFFFFFFFFFFFFFFFFFF0D
:10040000FFFFFFFFFFFFFFFFFFFFFFFFDEF9FFFF23
:1004100010B5054C237833B9044B13B10448AFF33E
:1004200000800123237010BD4094FF1F00000000D6
:1004300070960000084B10B51BB108490848AFF38F
:1004400000800848036803B910BD074B002BFBD0A0
:10045000BDE81040184700BF000000004494FF1F93
:10046000709600004094FF1F0000000038B5002582
:100470000446C0F89C50C0F8A050C0F80C51C0F819
:100480001051294600F5077003F094FD84F82C52B2
:1004900084F82D52204638BD38B50022012380F85B
:1004A0001631054680F8142180F8152180F81721AF
:1004B00080F8182180F8192100F21B1300F21B218B
:1004C00003F8012F8B424FF00004F9D10C210548AD
:1004D00003F01AFB044803F0DDFC85F82C4285F894
:1004E0002D4238BD188F0000108AFF1F70B50446DA
:1004F0000D461646FFF7D0FF012084F8175184F807
:10050000186133462A4684F8140184F8150184F8EA
:10051000160184F82D020249BDE8704000F0E6BAE9
:10052000288F0000C9B200F21B1300F21B2203F84F
:10053000011F9342FBD170472DE9F04F87B004466D
:1005400090F8186190F8177102F098FAC5B200237C
:1005500029461022BF4803F0ADFCBE4803F09AFCC8
:100560001A2D00F28F80DFE815F032011801020128
:10057000EE00E000CF0090008D0090008D008D0017
:100580008D008D008D008D008D00950055023A0282
:100590004B02E601A9015D015101B700AB001B0050
:1005A00002F05CFA0028FBD002F068FAC5B202F053
:1005B00055FA0028FBD002F061FA2A46C3B2A649D8
:1005C0000293012000F092FA00236A1C0193039227
:1005D0009B46029B019A9DF80C5003EB02095FFABF
:1005E00089F90BF10108002708F1FF3A02F036FA09
:1005F0000028FBD002F042FA0023064601461022F2
:10060000944803F057FC1A2E00F0388231116B1E0B
:1006100011F00F0094F81821DBB200F02182934210
:100620000AD294F81701484506D9234409FB02333E
:1006300001F00F0183F81C1116F00F0300F0028285
:1006400095420AD294F817314B4506D9631909FB34
:10065000023206F00F0682F81C610237FFB2023543
:10066000082FEDB208F10108BED1019B0BF1040B7C
:100670000133BBF1200F0193ABD15A4677490120DA
:1006800000F034FA07B0BDE8F08F02F0F7F902F09D
:10069000F5F9F7E702F0F2F9054602F0EFF994F800
:1006A0001811EBB29942EDD994F81751C2B29542A4
:1006B000E8D901FB02421344002283F81C21E1E740
:1006C00002F0DCF904F21B13C0B204F21B2403F89D
:1006D000010F9C42FBD1D5E702F0D0F9054602F0AC
:1006E000CDF9064602F0CAF994F81821EBB29A4205
:1006F000C8D994F81711F6B2B142C3D902FB064625
:10070000334483F81C01BDE70421554803F0FCF98C
:10071000504803F0BFFB032002F014F9304602F00A
:1007200011F9384602F00EF9ACE704214D4803F008
:10073000EBF9484803F0AEFB02F0A0F902F09EF995
:1007400002F09CF99EE70421474803F0DDF9414897
:1007500003F0A0FB022002F0F5F8012002F0F2F80D
:10076000002002F0EFF8002002F0ECF88AE7042104
:100770003E4803F0C9F9374803F08CFB04F50774D1
:1007800000252946204603F031FC064602F076F9A2
:100790000135202D3070F4D174E7012002F0D2F839
:1007A000002504F5077608E003F020FC007802F04D
:1007B000C9F80135202D3FF465AFD4F824329D42AD
:1007C00029463046F0D3002002F0BCF8F1E72A2198
:1007D0002748B6FBF7F603F097F91E4803F05AFBDB
:1007E000012400230222062104A88DF810308DF880
:1007F00013308DF814208DF812608DF815608DF887
:10080000114002F0A9F802F00BF93BE702F036F9CB
:1008100004F21B13C0B204F21B2403F8010F9C4224
:10082000FBD12FE702F02AF9C6B202F027F9C0B2D5
:10083000102803D91030C0B21028FBD800F0F805FA
:1008400002F01CF9A7192B46C0B200224FF00F0E80
:1008500022E000BF108AFF1F189000007C9000006B
:10086000109000000890000000900000F88F000039
:10087000CC8F000094F818118E4207D294F81751CB
:100880009D4203FB017101D981F81CE10132013362
:10089000082ADBB23FF4F6AE40FA02F111F0010192
:1008A000E8D194F81851AE42F0D294F817C19C45A3
:1008B00084BF03FB057585F81C11E7E702F0DEF83D
:1008C000C0B2102803D91030C0B21028FBD800F0F5
:1008D000F80502F0D3F8C6B202F0D0F82B46C0B249
:1008E00000214FF00F0E12E094F818219A4208D917
:1008F00094F81751E718B54202FB067201D982F845
:100900001CE1013101330829DBB23FF4BBAE40FAF0
:1009100001F212F00102E7D194F818519D42F0D98A
:1009200094F81771B74204EB030784BF05FB067503
:1009300085F81C21E5E702F0A1F8C0B2102803D920
:100940001030C0B21028FBD800F0F80502F096F87D
:10095000C0B2102803D91030C0B21028FBD800F064
:10096000F80808F10806F6B20F2702F087F82B46C0
:10097000C0B2002212E094F81811994209D994F8F3
:1009800017E104EB030CC64508FB01C101D981F84E
:100990001C7101320133082ADBB219D040FA02F18E
:1009A00011F00101E7D194F818E19E45F1D994F8CE
:1009B00017C1C44504EB030C88BF08FB0ECE02F13F
:1009C000010288BF8EF81C110133082ADBB2E5D181
:1009D00008F101085FFA88F84645C6D152E604F2EC
:1009E0001B13002204F21B2403F8012F9C42FBD1AD
:1009F0000C21294803F088F8284803F04BFA41E617
:100A000004F21B130F2204F21B2403F8012FA3424C
:100A1000FBD137E602F032F8054602F02FF894F8E1
:100A20001811EBB299427FF62DAE94F81751C2B26D
:100A300095427FF627AE01FB024213440F2283F852
:100A40001C211FE69542BFF408AE94F817114945E2
:100A50007FF603AE611909FB021282F81C31FCE536
:100A60009342BFF4E9AD94F8171149457FF6E4AD20
:100A7000234409FB023383F81C01DDE55246084993
:100A8000012000F033F86B1E94F81821DBB29A4273
:100A90007FF6D6AD0121C4E5188F0000108AFF1F34
:100AA0003490000010B5044601F0D8FF00B910BD25
:100AB00002460449012000F019F82046BDE8104024
:100AC000FFF73ABD8C90000038B5012B0D4614BFDE
:100AD00020202120144601F035FF284601F032FF86
:100AE0002046BDE8384001F02DBF00BF00281DDDC5
:100AF0000EB410B5B5B038AC02A8C82200210194DC
:100B000004F022FC2346379AC82102A804F080FF93
:100B100002A804F0D5FE014602A802F0F5FF044841
:100B200003F0B8F935B0BDE8104003B0704700BF1E
:100B3000108AFF1F00207047704700BF704700BF3A
:100B4000C0F38D0200F00300032802F00F0108B586
:100B5000C2F3071209D0022801D0002008BD0023EB
:100B60000448FFF7B1FF002008BD01230148FFF74B
:100B7000ABFFF2E77494FF1F10B5044600F5077051
:100B800003F0D8F9204610BD70B5064C064EA4F50A
:100B9000787544F8106C20467C3C00F019FDAC429E
:100BA000F7D170BD189AFF1FBC9000002DE9F041ED
:100BB0000024DFF85480114E114F224656F8043FAE
:100BC00018F8015F0F48DBB29D420CD07B5DC3EB90
:100BD00003231B121A0202EB03421A44A1B200F0D3
:100BE000F7F9356001220134802CE7D10AB9BDE85C
:100BF000F0810448BDE8F04100F0F8B9849AFF1F85
:100C0000DC9000006C94FF1F8F95FF1F30B50D48DE
:100C100083B0FFF747FF0C4B1B788BB10B4D0C4C8F
:100C20002B680093009B22689B1A102B08D9094857
:100C300000F0F8F9FFF7BAFF2B680193019B2360DE
:100C400003B030BD7494FF1F849AFF1F909EFF1F56
:100C5000889EFF1F6C94FF1F2DE9F041DFF8D880BC
:100C60002A4D2B492B4F2C4C2C4E82B0404603F082
:100C7000A1F92A462A49404603F04AFB294A2A4B51
:100C800012680192019A1A603846FFF7EFFB2A4674
:100C90003846264903F03CFB2046322100F0EAF8B2
:100CA00004F17C00302100F0E5F804F1F8002F2178
:100CB00000F0E0F804F5BA702E2100F0DBF804F53E
:100CC000F870332100F0D6F804F51B70312100F0E4
:100CD000D1F804F53A703E2100F0CCF804F55970D3
:100CE000362100F0C7F82A461149002003F010FB16
:100CF000214604233046022200F0F4F82A4630460A
:100D00000C4903F005FB02B0BDE8F081FC87FF1F32
:100D1000EC9000007494FF1FA496FF1F6C94FF1FBB
:100D2000353F0000909EFF1F889EFF1F790B00003B
:100D3000890B00003D0B00005C94FF1FF0B5414C97
:100D4000414885B04FF4614103F01EF801233F494B
:100D500084F8153104F5077003F040F9204610229D
:100D60000821FFF7C3FB3A4800F0C2F8384800F00A
:100D7000BFF800285ED0374C04F5F8752046FF21F7
:100D800000F01AFD04F5F870FF217C3400F014FD2A
:100D9000AC42F3D1002601270024E5B22A46032302
:100DA00031462B48009700F0DFF82A4602233146EF
:100DB0002748009700F0D8F801342A46264B2448EB
:100DC000314600F0BBF8082C4FF00105E5D12E4468
:100DD000F6B2102EE0D14FF4967001F0D5FA002152
:100DE0001848FFF79FFBFFF7E1FE1C4B1C4A1B68EE
:100DF000039303991B4B116015481D706FF07F42E0
:100E0000002100F0E5F8124800F0F0F8642001F04D
:100E1000BBFA002211460E4800F0DAF80C4800F048
:100E2000E5F80D21104802F06FFE104803F032F88B
:100E300005B0F0BD17210E4802F066FE0B4803F026
:100E400029F8FEE77494FF1FF889FF1F5C94FF1FC9
:100E50006C94FF1FB496FF1F410B0000909EFF1F74
:100E6000889EFF1F849AFF1F10910000108AFF1FA9
:100E7000F890000070B5054682B00E46002100F0E3
:100E800067F928460B4B40F8103B002452230322FD
:100E90001021009400F086FB224605F1380305F18D
:100EA000780143F8042F8B42FBD1284685F838603F
:100EB00002B070BDBC90000070B50D4680F83810CF
:100EC00004461646103000F0EDFB29463246204617
:100ED000002300F093FA054610B1204600F0C2FA54
:100EE000284670BD10B402704370416010BC70475A
:100EF00002780AB370B543780546002600241BB972
:100F000015E06B78A34211DD6A6803FB0643C3EB6F
:100F1000431302EB8303184693F838104FF0FF3267
:100F2000FFF7CAFF01340028EBD170BD2A780136E3
:100F3000B242E3DC012070BD0120704770B44478F8
:100F400045689608880806FB040002F00302C0EB1F
:100F5000401001F0030105EB800001EB820100EB82
:100F6000810170BCCB63704770B402F00305467812
:100F7000406801F0030404EB85049208890802FB31
:100F80000615A10804F00304C5EB451504EBC101E7
:100F90001A4600EB85009DF80C30C9B270BC00F019
:100FA00009BA00BF70B44578406896088C0806FB03
:100FB0000544C4EB441402F0030500EB840001F087
:100FC000030101EB85011A46103070BC00F09ABB9A
:100FD00010B44478A30091FBF3F403FB1411C9B2DD
:100FE0001346E2B210BCFFF7DDBF00BF0378C3B108
:100FF00070B5054640780026002470B100FB06401D
:101000006B68C0EB401003EB8000103000F064FB15
:1010100068780134A042F1DC2B780136B342EBDC76
:1010200070BD70470378002B00F081802DE9F04FF0
:1010300085B000AF00224478BA608346002C6DD0A2
:10104000BB689B00FB604FF0000805E09BF8014087
:1010500008F1010844455FDDBB6804FB0384DBF84D
:101060000430C4EB441403EB8404204600F03EF942
:101070004FF47A53013BFDD10028E7D00230C6B2CD
:10108000F31D23F00703C7F804D0ADEB030D694649
:10109000324620466D4600F01BF9AEB34FEA880396
:1010A000C7F800804FF0000AB04626461C4615F8E7
:1010B0000A008208D31002F0070202EB830363F3F5
:1010C00087000F2B06EB830205F80A0016D8F96893
:1010D000D26B03F00300204401EBA30372B19BF831
:1010E00001E015F80AC04FEA8E0E1EFB03F3184408
:1010F0006CF3010960F38F09484690470AF1010A31
:10110000D045D4DCD7F800809BF80140D7F804D054
:1011100008F1010844459FDC9BF80030BA680132B1
:101120009342BA608ADC1437BD46BDE8F08F704741
:1011300090F8383090F839209A4205D95A1C034467
:1011400080F83820187E70474FF0FF30704700BF9E
:101150000022044B0271036009B181607047024BA9
:10116000836070472C9100003488FF1F2DE9F04FF9
:1011700085B09DF83890BDF83C40B9F1000F77D0AC
:101180001F46DFF8F8800392630102910546019340
:1011900000246A79AB680299520083F83B204FF033
:1011A000010283F85E2083F85D20A8680368C4EB21
:1011B0000906202E1B68A8BF20269847A868039917
:1011C00003681B68984795F90C00421CF6B202D1DF
:1011D00006E095F90C00C0B201F0A0F80028F8D0A4
:1011E0000121A86800F0C0FC019B13B1019B013BE9
:1011F000FDD195F90C00431C02D106E095F90C00D5
:10120000C0B201F08BF80028F8D00123324669798A
:10121000A86800F033FD4EB34FF0000B12E090F8D9
:10122000383090F839209A4203F1010E00EB0301A7
:1012300021D980F838E0087E07F80A000BF1010B8D
:10124000B34510D0A86803685B6904EB0B0A4345FB
:101250005FFA8AFAE3D098470BF1010BC0B2B345AD
:1012600007F80A00EED15C4404F0FF04A14590D8D1
:1012700005B0BDE8F08FFF20DEE700BF31110000B0
:1012800010B5023984B003291FD8DFE801F0180235
:101290001C1A082202214FF4FA738DE80A0003ABEE
:1012A0000921FFF763FF9DF80C409DF80D300120E8
:1012B00043EA042401F068F8204604B010BD072278
:1012C000E8E70A22E6E70922E4E70020F5E700BFA5
:1012D00010B582B04FF47A74009210220B4601943C
:1012E0001146FFF743FF02B010BD00BF00B5012259
:1012F00085B04FF4FA738DE80C0010210DF10F0347
:101300000422FFF733FF9DF80F0005B05DF804FBE2
:101310002DE9F04145799DF8186004460127806861
:10132000BD4080F85E7080F83B5080F85D70A0682A
:101330000568D5F800801F461546C047A0680368B9
:1013400029461B689847A068056832466B6839468D
:10135000984794F90C00431C02D106E094F90C0064
:10136000C0B200F0DBFF0028F8D0A0680121BDE882
:10137000F04100F0F9BB00BF0439C9B2032916D807
:1013800070B50B4B5D56002D84B00EDB0323144665
:1013900016120093022203AB08218DF80C508DF831
:1013A0000E408DF80D60FFF7B3FF04B070BD7047BD
:1013B0002091000030B5012585B04FF0000405FAFA
:1013C00002F263F3000402238DF80C1062F344046C
:1013D00000932A4603AB10218DF80D40FFF798FFCC
:1013E00005B030BD30B585B004AC012504F8013D31
:1013F00000952346FFF78CFF05B030BD30B51D4684
:10140000531C85B004464171027303D0D0B2002151
:1014100000F092FFA06800F017FA95B901227D2331
:1014200020468DE80C0000210DF10F03FFF79EFE12
:101430009DF80F00A0F15500B0FA80F0400905B00A
:1014400030BD04ABFF2203F8022D0122009220469A
:101450007F220021FFF75CFF4FF4FA7000F094FF49
:10146000DCE700BF00B585B004AB012203F8012D15
:10147000102100920222FFF74BFF05B05DF804FB3C
:1014800010B584B004AB012403F8011D052202212C
:101490000094FFF73DFF204600F076FF204604B0A1
:1014A00010BD00BF10B50A788AB0A2B100230AAC03
:1014B0001C44013304F8202C11F8012FDBB2002A60
:1014C000F5D11C460093052202AB0221FFF720FF55
:1014D00020460AB010BD14461346F3E70439C9B2DA
:1014E000032921D870B5194C6556002D84B019DB3D
:1014F000102B144619D0164B8DF80C50C2EB02423B
:1015000083FB02341444D217C2EBE41403232512E4
:101510000093012203AB08218DF80E408DF80D5089
:10152000FFF7F6FE04B070BD704703231612009358
:10153000012203AB08218DF80C508DF80E408DF878
:101540000D60FFF7E5FE04B070BD00BF2091000004
:101550008180808038B504464079A3680125A84081
:1015600083F85E5083F85D5083F83B00A068036801
:101570001B6815469847A068036829461B6898476A
:1015800094F90C00431C02D106E094F90C00C0B29F
:1015900000F0C4FE0028F8D0A0680121BDE8384062
:1015A00000F0E2BAF8B504460F46069916461D4605
:1015B000FFF7CEFD00210548267561752060278262
:1015C000A584E173A16121622046F8BD5491000019
:1015D00010B504468069034B236008B103F07AFB21
:1015E000204610BD5491000070B50546806984B056
:1015F0000E4608B103F06EFBEB7F2C7FA34214BFB5
:101600000424032414FB06F4A4B26C8220460121B6
:1016100003F0ECFAA86180B12E82260AE4B202231C
:101620000093284603AB03220E218DF80C608DF841
:101630000D40FFF76DFE04B070BD0446688228823D
:101640000646ECE7F8B5FF29C1F38113C57F067F95
:10165000C377C1F3011E01F003028CBF00230123F5
:101660000446C1F381078277837380F81CE04777D3
:1016700002220E21AD1BFFF7B5FEA369B5FA85F571
:101680006D096BB1E37F227F9B1AB3FA83F35B0989
:10169000AB4205D0218A2046BDE8F840FFF7A4BF41
:1016A000F8BD00BF70B501230446FFF7A7FE05464D
:1016B00080B1A18C2046FFF7C5FF218A2046FFF7A5
:1016C00093FF94F914600122F3B20E212046FFF734
:1016D00089FE2675284670BD83698BB110B5044616
:1016E00000F030FE236AC01AB0F5967FF8D30522C9
:1016F0000E212046FFF72EFF00F024FE206210BDD1
:10170000704700BF038A8B4246D9F0B5447D160C62
:10171000150A85B0F6B2EDB25FFA82FE5CB104FB49
:1017200006F604FB05F504FB0EFEC6F30726C5F31B
:101730000725CEF3072EC77F037FBB4232D08369D4
:1017400003EB8103120E1F443CBBD2B23A70077FF9
:10175000DE55427F9D54827F03F802E0C47F027F02
:10176000944224D004221546062611FB05F18DB2C1
:10177000044619462F120DF10A008DF809508DF814
:10178000087000F095FB0096204602AB04220E2163
:10179000FFF7BEFD05B0F0BD704704FB02F2C2F3D7
:1017A0000722D3E7826901EB41031344D0E7032208
:1017B00015460526D9E700BF4175704790F83920D6
:1017C00090F83800101A704790F8383090F83920A7
:1017D0009A4286BF1B18187E4FF0FF30704700BF3B
:1017E000704700BF38B50546B0F85E0090B195F877
:1017F0005D301446C3F1210294420CD805F13B0040
:101800001844224600F054FB95F85D30234485F8D7
:101810005D30204638BD012014462871EEE700BF38
:10182000B0F85E306BB190F85D30202B07D8C2184D
:10183000013380F85D30012082F83B1070470123AE
:1018400003710020704700BF0023426980F83830E0
:1018500080F8393080F85C3080F85D3080F85E3098
:1018600080F85F3006CA30B40D68046943662A43C5
:1018700083660A60A370426990F861301649146863
:1018800013441D7A5B7B01EBC5051B026D6803F4F5
:10189000E06343F064032B6090F8623013449D7C56
:1018A000DB7D01EBC5011B02496803F4E06343F0F3
:1018B00064030B6021685368194205D0036927222D
:1018C0005A70036904229A71036920225A710369CC
:1018D00080229A7030BC7047D891000010B5026920
:1018E000D378DBB2D90604463DD510215806D17015
:1018F00038D503F0040303F0FF02002B51D03D491B
:10190000626E00230B7084F85D30002A5BD0904734
:1019100094F85D30002B56D02369D0229A70236949
:1019200094F83B201A712369012284F85C2002227A
:10193000DA7010BD304B84F860009C424AD02F4BC7
:101940009C4252D094F8391013791F29DBB207D882
:101950002848007820B16018013184F839100376E6
:101960000223D37010BD5906C3D4917801F0100141
:1019700001F0FF000029DDD013F001031ED194F81F
:101980005C1094F85D00884281BF4B1C091984F8F3
:101990005C3091F83B3013712369D0229A70226930
:1019A000DEE7236984F83920C0229A702369114A3E
:1019B0001979012111700222DA7010BDC0239370D1
:1019C00022691379CCE70122002384F85D2084F892
:1019D0003B30A1E7626994F861300949134403225E
:1019E000187A00F0C3FB2269ACE7626994F86130B1
:1019F0000449F3E78C9EFF1F3488FF1FA088FF1F58
:101A0000651A0000711A00000369DB7803F02003F7
:101A100073B190F860300133DBB2012B80F8603095
:101A20001AD9426990F861301344187A00F01ABC50
:101A300070B5426903F0FF0590F861301344044625
:101A4000187A00F00FFCA36E5BB184F8385094F85C
:101A50003900BDE87040184790F85F30002BE0D0A7
:101A6000704770BD0148FFF7CFBF00BF3488FF1F2C
:101A70000148FFF7C9BF00BFA088FF1F2DE9F0474D
:101A8000374FDFF8E0903B68026982B0064600936A
:101A9000DDF800800021A025D3789B065BD53B684C
:101AA0000193019BC8EB03030F2BF5D949B1102B10
:101AB000F2D000209070336980229A7002B0BDE8A5
:101AC000F087726996F8613013440521187A00F0A6
:101AD00033FC726996F861301344012193F812A027
:101AE000504600F029FC09240021504600F010FC6B
:101AF0002B46013BFDD10121504600F009FC2B464D
:101B0000013BFDD1013CEFD1706996F861100144B1
:101B10004FF4A0720C7A4B7B09EBC4011B0249689D
:101B200003F4E06343F064030B6096F8623003440F
:101B3000997CDB7D09EBC1011B02496803F4E0637A
:101B400043F064030B60013AFDD13269D3789B0600
:101B50004FF00101A3D4012002B0BDE8F08700BF1F
:101B6000909EFF1FD8910000F0B503691222DA7031
:101B70000269937803F0200385B004460D46002BDC
:101B80005ED0B42393703C4922690B680093009E99
:101B900005E00B680193019B9B1B042B42D8D37873
:101BA00003F0200303F0FF00002BF2D094F85D3027
:101BB000002B31D04FF0000E4FF0020C04EB0E035F
:101BC00093F83B3013710B680393039F206907E080
:101BD0009B060DD50B680293029BDB1B052B28D8B7
:101BE000C378DBB203F0020202F0FF06002AEFD056
:101BF00080F803C02669F378DBB2DF0632462DD4C5
:101C00009F062BD5DB0731D40EF1010E94F85D3021
:101C10005FFA8EFE7345D1D800201DBB002384F8E7
:101C20005E3004E09070236980229A70042005B031
:101C3000F0BD86702369802204209A7005B0F0BD43
:101C400003F0FF06FFF71AFF10B9042005B0F0BD3E
:101C5000236984F85F60B0229A7094E78023B370A0
:101C60000420DAE726698023B370D7E7BEF1000FBE
:101C70000CBF02200320F6E7909EFF1F2DE9F041E4
:101C800006690025122780F8385080F83950F7701F
:101C9000D0F810C09CF802E00EF0200E88B0044688
:101CA000884615461E46BEF1000F49D0B4238CF875
:101CB0000230784B21691A680092DDF800E006E0F6
:101CC0001A6801920198CEEB0000042830D8C87839
:101CD00000F0200000F0FF070028F1D04FEA480292
:101CE00042F00102D2B20A711A680292DDF808E0ED
:101CF000206906E01A6803920399CEEB01010529D9
:101D00002AD8C17801F0020101F0FF070029F1D0C3
:101D10004FF0020C80F803C02269D17811F011074E
:101D200022D12DBB002E0CBFA0238023937003E093
:101D30008F70236980229A70384608B0BDE8F08120
:101D40000EF0FF07FFF79AFE0028F5D0236984F80C
:101D50005F70B0229A70ACE78770236980223846A2
:101D60009A7008B0BDE8F081802393700027E3E704
:101D7000012D75D0A021917021690A79BE46674670
:101D80004FF0A80C1A680492049805E01A680592AE
:101D9000059A121A052A4AD8CA7802F0020202F0FD
:101DA000FF08002AF2D0CF702169CA78D2B212F0AF
:101DB000100F08465AD1920658D5013DEDB2012DBB
:101DC00049D0BEF11F0F3BD90A79012DDAD11A682B
:101DD0000692069D05E01A680792079A521B052A8B
:101DE00046D8C27802F0020202F0FF01002AF2D0C7
:101DF0000223C3702269D378DBB2D9063AD49B069A
:101E000034D5B023BEF11F0F93703FD8226904EB85
:101E10000E0312791A760EF1010E5FFA8EFE16B1DC
:101E2000236980229A7084F839E0774684E781F844
:101E30000280236980229A70774684F839E07BE734
:101E400004EB0E0291F8048082F818800EF1010E66
:101E50005FFA8EFEB9E781F802C021690846B0E753
:101E6000A82191702069BE460279B0E7774663E702
:101E70008170DEE71021A023D170013BFDD12269E2
:101E8000937803F0F7037746937055E723691B793E
:101E9000C5E700BF909EFF1F0148FFF71FBD00BFB1
:101EA0003488FF1F0148FFF719BD00BFA088FF1F3E
:101EB000844641EA000313F003036DD1403A41D355
:101EC00051F8043B40F8043B51F8043B40F8043B14
:101ED00051F8043B40F8043B51F8043B40F8043B04
:101EE00051F8043B40F8043B51F8043B40F8043BF4
:101EF00051F8043B40F8043B51F8043B40F8043BE4
:101F000051F8043B40F8043B51F8043B40F8043BD3
:101F100051F8043B40F8043B51F8043B40F8043BC3
:101F200051F8043B40F8043B51F8043B40F8043BB3
:101F300051F8043B40F8043B51F8043B40F8043BA3
:101F4000403ABDD2303211D351F8043B40F8043B43
:101F500051F8043B40F8043B51F8043B40F8043B83
:101F600051F8043B40F8043B103AEDD20C3205D353
:101F700051F8043B40F8043B043AF9D2043208D04B
:101F8000D2071CBF11F8013B00F8013B01D30B88BD
:101F900003806046704700BF082A13D38B078DD09B
:101FA00010F003038AD0C3F10403D21ADB071CBF6D
:101FB00011F8013B00F8013B80D331F8023B20F8D7
:101FC000023B7BE7043AD9D3013A11F8013B00F810
:101FD000013BF9D20B7803704B7843708B78837098
:101FE0006046704708B5104C08E0236859050DD4C9
:101FF00023681A050FD42368DB0411D4236858031F
:10200000F3D500F013FF23685905F1D500F0ACFDBE
:1020100023681A05EFD500F009F82368DB04EDD535
:1020200000F004F8EAE700BF3480044008B5FFF789
:10203000D9FF00BF014B10221A80704700200540D5
:10204000704700BF094908B50B6830B16A461844AB
:10205000A2F58052904202D20860184608BD02F0F4
:1020600003FE0C2303604FF0FF3008BD0C89FF1FF7
:10207000EFF3138070B9EFF310836BB9EFF30582C0
:102080005AB94FF48070EFF311832BB1984228BFF7
:10209000184670474FF0FF3070470F2A01D8184696
:1020A000F1E7014BD05CEEE7F0E300E0704700BFE2
:1020B00010B40F4B53F8302092F880422CB101231A
:1020C00069B182F8803010BC704703EBC0035B68D5
:1020D0001A6841B922F002021A6010BC704782F8F7
:1020E000003110BC704742F003021A6010BC704708
:1020F000D89100001C4A02EBC00301295B6811D093
:1021000004291BD052F83000002280F8802229B127
:10211000022920D0032922D01A6070474FF4807220
:102120001A60704752F830004FF4A27280F88012A3
:102130001A601A6822F020021A60704752F83010B4
:102140004FF4A272012081F880021A601A6842F0EE
:1021500020021A60704740F203121A6070474FF471
:1021600081721A60704700BFD8910000212848D8BA
:10217000F8B5042A44D8DFE802F0484B4E03450086
:102180004FF410262B4B03EBC0030D465C6821680F
:1021900011F4E06148D0284B284A2949C3F89C2112
:1021A00004F140422748C3F8A411A2F59221264F1A
:1021B000C3F8A0017C292548C3F8A871C3F8AC0175
:1021C0002CD9A2F594237C2B2AD9A2F596237C2B1B
:1021D00028D9A2F598237C2B29D9A2F59A227C2A0A
:1021E00027D81B4872B6236823F4702343F080720B
:1021F000C4F384011643236040F82150266062B680
:10220000F8BD70474FF43026BCE74FF40026B9E71D
:102210004FF44026B6E74FF42026B3E70D48E1E738
:102220000D48DFE70D48DDE7FFF764FFB3E70C4833
:10223000D8E7F8BDD89100000082FF1FD187FF1FAB
:102240007987FF1FA587FF1F4D87FF1F2187FF1F6E
:10225000E889FF1F1089FF1F4889FF1F9889FF1F0A
:10226000C889FF1F1A4B03EBC00010B4426802F18B
:102270004043A3F592217C2923D9A3F594217C29FD
:102280000DD9A3F596217C291FD9A3F598217C2986
:1022900019D9A3F59A237C2B11D80E4C00E00E4CD3
:1022A00072B613680D4823F08773C2F3840123F4D8
:1022B000803343F08073136044F8210062B610BC91
:1022C0007047074CECE7074CEAE7074CE8E700BF2C
:1022D000D8910000E889FF1F4889FF1FAD2000004A
:1022E0001089FF1FC889FF1F9889FF1F30B4054B55
:1022F000054D064C002210211A602A6020601960EA
:1023000030BC704714D0034004D0034000D00340D9
:10231000212801D8FFF7CCBE704700BF212806D87E
:10232000044B53F8303093F80002C0B270470020DD
:10233000704700BFD8910000212801D8FFF7DABE0E
:10234000704700BF72B60C490C4B0D4A1B680868F9
:10235000126862B6520102D5322B88BF013009499A
:10236000C3F5BB334FF47A72FF33A1FB031302FBB7
:1023700000F000EB93107047909EFF1F18E000E004
:1023800004ED00E0ABAAAAAA2DE9F843054672B60F
:10239000204F214B214A1B683C68126862B65201EB
:1023A00002D5322B88BF013495B3C3F5BB331C4E25
:1023B000DFF86490DFF86480FF334FF47A72A6FB95
:1023C000031302FB04F404EB931472B6D9F8001063
:1023D0003A68D8F800E062B6C1F5BB33FF33A6FB1C
:1023E00003031EF0806FC4EB93134FF47A7002D096
:1023F000322988BF013200FB0233B3F57A7F04D360
:10240000013D05D004F57A74DFE701F01BFEDCE73F
:10241000BDE8F883909EFF1F18E000E004ED00E0A7
:10242000ABAAAAAAF8B52D4B2D49DFF8D0E0DFF80A
:10243000D0C02C4E2C4D2D4C2D4A2E4F4FF4000069
:1024400018604FF0807018604FF0007018604FF007
:10245000806018604FF0006018600020086028233A
:102460004BF6FF71CCF80010CEF8003033601360EB
:102470002B6023603B60B3629362092245F8242CF1
:10248000C4F8D80F05F57F65C7F8D41F07F5FF27F7
:1024900007F5FA67C6F8F83F2B6006F5FF26C4F883
:1024A000D42F05F5FD2504F5FF24386006F2F476F7
:1024B0001148316005F5FF6504F5FD642B6023606C
:1024C000026001F035FE1920FFF75EFF01F014FAFB
:1024D00040F21310BDE8F840FFF756BF08E100E0F6
:1024E0000480034014800340248003402C80034078
:1024F0001C8003403480034000800B400C8003406C
:10250000088003402DE9F84F214B1B6807460BB1AB
:1025100001221A70DFF888901E4D99F80040DFF80C
:1025200084801D4E01343F2C8ABF4FF0000A5FFAB1
:1025300084FA5446AB462B78A34216D1FFF798FD98
:1025400040281FDC33791B06F5D59BF8003001339A
:102550003F2B86BF00221346DAB218F80330DBB2F5
:10256000F3712A702B78A342E8D00C490A4BFFB2D2
:1025700008F804700120BC22087089F800A0DA7005
:10258000BDE8F88FFF28D6DD01F05CFDD3E700BF82
:10259000E4A0FF1FE1A0FF1F00A00640E0A0FF1F76
:1025A000E8A0FF1F9C9EFF1F2B4A2C491368F0B523
:1025B00043F4806313600A78294F2A4E2A4D2B4C2E
:1025C0002B4900233B8033802B7023700B70002A33
:1025D0003DD0152A21D0274B1B78012B25D0052B68
:1025E00030D01F2827D8002002460125224B234C3B
:1025F0001A7023495D7004224FF0020E88273C2692
:10260000402598729A704FF4005083F813E05A7581
:102610001F74DE7025700860F0BD1A4B40F2133253
:102620001A60144B1B78012BD9D1174B4FF4517200
:102630001F281A60D7D9C0F34432C0F3471500F001
:102640001F00D3E7114B4FF451721A60C9E7104BCA
:1026500040F213321A60BEE734800440DC9EFF1F54
:10266000989EFF1F9A9EFF1FE8A0FF1FE1A0FF1F7B
:10267000E0A0FF1FF089FF1F00A006402DE400E04E
:1026800004E100E018C0044044A004401CC0044021
:1026900040A00440144B14499B7803F0EC0200F076
:1026A00003031343420700F00F0248BF43F0100337
:1026B000042A8B7013D00C4B0B4A5B79C10603F0D4
:1026C000EF0348BF43F0100353719379820603F080
:1026D000EF03054A48BF43F01003937170478B79AD
:1026E00043F040038B71E6E700A00640234B1B68D4
:1026F0005B0541D510B5224C237823B101F0A2FC33
:102700002378002BFAD11F481F4A204B4FF4005466
:1027100000210460D1701B78FBB1152B03D11C4B39
:1027200040F203121A601B4B1B7803F07F03012B4E
:102730001DD0052B03D1184B40F203121A60174A23
:10274000114B1748174912681C79DB790023038065
:102750000B800AB10123137010BD134B40F203121A
:102760001A600C4B1B7803F07F03012BE1D10F4B58
:1027700040F203121A60E2E7704700BF3480044061
:10278000E0A0FF1F84E100E000A00640DC9EFF1FE8
:1027900018C00440F089FF1F1CC00440949EFF1F16
:1027A000989EFF1F9A9EFF1F40A0044044A0044033
:1027B0000A4A38B50546137803F0FF04002BFAD116
:1027C00001212846FFF7B8FD21462846FFF7A0FD66
:1027D000034A044B52F835201A6038BDE0A0FF1FB1
:1027E000D8910000E4A0FF1F09B140F08000174A13
:1027F0001378984216D010B4154C246864050FD590
:1028000003F07F03012B1CD0052B11D0002900F011
:102810007F0114BF6023442301290DD0052902D074
:10282000107010BC70470B4943F440730B60F7E71E
:10283000084B00241C60E9E7074943F440730B6030
:10284000EEE7054B00241C60E0E700BFF089FF1FA6
:10285000348004401CC0044044A00440104B1A784B
:1028600082420AD00F490968490505D5AAB1152A3F
:1028700009D068B1152801D0187070470A4A40F293
:1028800013311160F8E7084A002111600028F1D1E6
:10289000064A40F213311160EEE704490A60E8E7A6
:1028A000DC9EFF1F3480044018C0044040A0044058
:1028B0000D4B1B6813F4806305D0212805D90B4B01
:1028C00000201860704718467047094B10B5074C38
:1028D00053F8303023600121FFF72EFD23680022DA
:1028E0001A70012010BD00BF34800440949EFF1F69
:1028F000D89100000F4B1B6813F4806308D0122896
:1029000008D0142811D00C4A537B03F0FE035373F4
:1029100000207047094B40F202321A60064A537B8E
:1029200043F00103537301207047054B40F202321C
:102930001A60F3E73480044000A006400CA0044075
:1029400014C00440034B1B685B0501D5FFF7DABDDB
:10295000704700BF348004402DE9F84F294B1B68B5
:102960005A0548D5284B1B6805460BB101221A7041
:1029700005EB010A554540D2DFF89C80234CDFF877
:102980009C90234F0AE015F8012B09F80B20214AEF
:102990000123AA45137088F800602ED098F8003003
:1029A000227803F1010BBBF13F0F86BF0026B3462F
:1029B0005FFA8BF69345E6D1BC22FA7005E03A79CE
:1029C00013060BD422789345DDD1FFF751FB402845
:1029D000F5DDFF28F6DD01F035FBF3E72278013263
:1029E0003F2A86BF00210A46D1B219F80220D2B28E
:1029F000FA712170E6E7BDE8F88F054BBC22DA706A
:102A0000BDE8F88F34800440E4A0FF1FE1A0FF1F61
:102A100000A00640E0A0FF1FE8A0FF1F9C9EFF1F34
:102A200010B5044C237823B101F00CFB2378002B64
:102A3000FAD110BDE0A0FF1F064A074B1B781078A3
:102A4000DBB2C0B283422CBF3F3000F1FF30C01A6E
:102A5000704700BFE1A0FF1FE8A0FF1F054A064B1B
:102A600010881B8880B29BB2984238BF00F5007076
:102A7000C01A7047989EFF1F9A9EFF1F164B30B4D6
:102A8000164C1A88238892B29BB29A4221D0013305
:102A9000B3F5007F0FD31249124B08781968002351
:102AA000C0B2238029B1D31AB3F5ED7F01DC002336
:102AB0000B7030BC70470A480A49C05C09689DB277
:102AC000C0B225800029F4D09A4238BF02F50072C6
:102AD000E9E74FF0FF30ECE7989EFF1F9A9EFF1F3B
:102AE000E09EFF1F949EFF1F094A0A4B12881B8815
:102AF00092B29BB29A4208D00133B3F5007F28BF4F
:102B00000023054AD05CC0B270474FF0FF307047D9
:102B1000989EFF1F9A9EFF1FE09EFF1F0D4B1B6894
:102B20005B0516D530B40C4B0C4CDA780C480D49CB
:102B300002F0CB024025DA705D74DA7842F034029C
:102B4000DA70238802689BB20B800AB100231370ED
:102B500030BC70473480044000A006409A9EFF1F9E
:102B6000949EFF1F989EFF1FF0B4394B1A7912F004
:102B7000300F2ED072B6997D01F0FF0200293FD0B0
:102B800062B6344F344938880D88344E1C4680B2C2
:102B9000ADB2431CB3F5007FE17928BF0023AB42FF
:102BA00002F1FF32C9B21CBFF154184612F0FF0205
:102BB000EFD12B4B1B6882B23A8053B1A84236BF8B
:102BC000C5F50075401B4019B0F5F47FA4BF012284
:102BD0001A701F49CA78D2B2150616D452060DD5FE
:102BE0001B4B1B795B0609D51E4B1F491B68002236
:102BF0000A7003B11A70164B3C22DA70F0BC7047B1
:102C00004022D9795A7462B6E3E70B791C06E5D500
:102C1000164B174E1C783378E4B2DBB29C420ED0D0
:102C2000144D01E0A3420AD00133402B28BF0023FA
:102C30000879E85CC0B2C871087D0728F2D9DBB218
:102C4000034933700B79180644BF7C23CB70C5E76A
:102C500000A00640989EFF1F9A9EFF1FE09EFF1F48
:102C6000949EFF1FE4A0FF1FE0A0FF1FE8A0FF1F2E
:102C7000E1A0FF1F9C9EFF1F431E032B14D872B6BA
:102C80000A4951F8230068B170B4094C058834F83A
:102C90001320466841F82360521B24F8132062B6C3
:102CA00070BC704762B670470020704744A1FF1F98
:102CB00044A2FF1F013803280BD872B6074B53F804
:102CC000203043B100205B680130002BFBD162B69D
:102CD0007047002070471846F9E700BF98A1FF1F12
:102CE00030B472B62B4A13781D0706D52A4B196AE1
:102CF000002936D0996A002941D053781C0706D59F
:102D0000254B196C00293ED0996C002939D0937855
:102D1000190705D5204B196E002936D0996E89B157
:102D2000D3781B0707D51C4BD3F880207AB3D3F890
:102D3000882011213AB162B6184B00221A7030BCBB
:102D400000F056BE0D21154C154D227843F8315038
:102D500003EBC1030830013A5860227062B630BC00
:102D6000704704220D4C0F4D217843F8325003EB8D
:102D7000C20308304A1E5860227062B6EFE7052190
:102D8000E1E70921DFE70822ECE70C22EAE710225D
:102D9000E8E700BF749300000080FF1FC1A1FF1F80
:102DA000C800400088004000431E032B1DD81B4A6A
:102DB000400140F0100030B4104472B6184CE25C90
:102DC000032A1BD8DFE802F00212151703220D8830
:102DD000E25410F0080F14BFC823882343EA0543C8
:102DE00008310360416062B630BC7047083002228F
:102DF000EDE70522EBE708300422E8E7094A52F83C
:102E0000230038B1084A52F82300416042F82310E9
:102E100062B6E9E742F82310034AF7E70080FF1F94
:102E2000D0A1FF1F98A1FF1FA8A1FF1F2DE9F04F00
:102E3000DFF818B3DFF818A387B044E0AE4F4FEACD
:102E4000930807EBC809013ED9F8042003F00803F2
:102E5000F6B2A2F1080003F0FF04002B40F0048159
:102E600057F838301B0C99B222F8081C002B00F0E0
:102E7000F280A24B22F8064C42F8044C53F826206C
:102E8000002A00F06E819E4D55F8263058609D4C0A
:102E900045F8260034F81630194424F8161000F0CE
:102EA00087FD002800F05681974A984B19F0080FCB
:102EB00000F1080018BF1346C9F8040047F838307D
:102EC00008238BF800309BF80040E4B261071BD563
:102ED0008F4B1B78ABB18F490A7802F0FF032AB100
:102EE000013BDBB20B70002B00F0EF848A490A78BB
:102EF00002F0FF032AB1013BDBB20B70002B00F0A4
:102F0000F78004238BF8003004F0080303F0FF027D
:102F1000002B00F0D6809AF80030DBB21E098DD16C
:102F20009C08DFF8D49159F8342009EBC401C2F3AE
:102F30008302013A49680C2A7ED8DFE802F08181D9
:102F40007D7D7D7D7D7D477D7D7D07000868734D9E
:102F50004A68734F734E286081B240F281606A4BB9
:102F60006A604FF0010E0022814249F834303A6025
:102F7000C9F81020C9F8182086F800E05E4C00F26D
:102F8000F480B1F5D06F80F07883B1F5817F00F0E7
:102F9000628300F28782802900F0EC82822940F06F
:102FA0001E83A98801F07F01042900F218835E487E
:102FB0005E4C89000844227062700278930740F1E9
:102FC000798384F800E04FF0020ED8E2544F3A685B
:102FD00042B3574B534E5749188834780D784028E0
:102FE000864645F0020828BF4FF0400E002C84F0C2
:102FF00001043470CEEB00000CBF8824C82409EB18
:10300000C80680B285F0010544EA0E44726018805B
:1030100049F8384072440D7018B9BEF1400F18BF1E
:1030200000223A603D4B1A88B2F5A06F04D100210E
:103030009A785970404B1A70404A012313703FE749
:10304000364A158842F22100854200F0FF812E4A5F
:1030500049F83420F0E72C4A2C4B19F0080F18BF20
:10306000134647F838302BE700F0C2FC344A3549A4
:1030700052F82630002B00F0B68158688C5D42F87B
:10308000260003F10802C9F80420032C05D8DFE864
:1030900004F0120F150204228A551A8819F0080F3D
:1030A0000CBF8823C82343EA024347F8383007E7B8
:1030B00002228A55F1E703228A55EEE705228A5556
:1030C000EBE7E00700F11A82210600F14982A2072E
:1030D00006D51D4A1D4913780220DBB21370087013
:1030E000E30602D5194B10221A7007B0BDE8F08F25
:1030F00000F0EAFD05E700BF0080FF1F44A1FF1FAD
:10310000F0A0FF1F44A2FF1FC8004000880040003D
:10311000CCA1FF1F55A1FF1FD4A1FF1FB8A1FF1F06
:10312000ECA0FF1F54A1FF1FC0200740C4A1FF1F38
:1031300000A1FF1FC0A1FF1F982007409420074057
:1031400098A1FF1FD0A1FF1F8820074080200740C3
:1031500090200740AB4A47F83800137801331370CA
:10316000AEE643F82600A84D91E642F221008142E6
:1031700000F0358100F2AF81B1F5086F00F01B82DD
:10318000B1F5106F40F02B82226AA049A878087030
:10319000120600F14583D9F828209D49130600F155
:1031A0003A83D9F830209A49150600F12F83D9F8CF
:1031B00038209749140600F12483D9F84020944917
:1031C000100600F11983D9F848209149120600F140
:1031D0000E83D9F850208E49130600F10383D9F8E5
:1031E00058208B49150600F1F882D9F860208849EB
:1031F000140600F12983D9F868208549100600F1EA
:103200001E83D9F870208249120600F11383D9F881
:1032100078207F49130600F10883D9F880207C4983
:10322000150600F11C83D9F888207949140600F1AD
:103230001083D9F890207649100600F1C882D9F899
:1032400098207349120600F1BC827248724A734991
:10325000019073486C4D734C0497002305960295BA
:10326000804617460E461D460394386828B14468C8
:1032700000F0BEFB2046002CF9D100233B60029BEE
:1032800030681A46002342F8253028B1446800F01F
:10329000AFFB2046002CF9D100223260019A98F849
:1032A00000301146002241F8042B039A0191023BA1
:1032B0004FF0000122F81510032B09D8DFE813F0B6
:1032C0004B0104004B0104004FF0010388F800306B
:1032D0000135042D07F1040706F1040608F1010881
:1032E000C3D1514C514B2278464D049F059E00217D
:1032F00029701A70130700F14F8262784C49DFF889
:1033000010810A7010074FF00001C9F83010C9F899
:10331000381000F12B824749A2780A700021C9F8C1
:103320005010C9F858101107DFF8E48000F1DC8173
:10333000E2784149364C0A7000211207C9F8701032
:10334000C9F8781000F1B98133780193002183F036
:103350000102C9F89010C9F8981000200290804628
:103360008446044635490D7845F0020E09EBCE033C
:103370000393019B002B039B5C600CBF8824C82433
:1033800044EA080385F0010449F83E3032700C70BD
:10339000DFF87CE02A4BDFF8A480002840F026818B
:1033A000BCF1400F1BD144F0020C09EBCC03029C92
:1033B000DFF85CE05C60002A40F02E81020442F0FD
:1033C00088029DF804304EF83C20044433700D70A0
:1033D0002346402803D100201A4A3B6010801A4A35
:1033E0000123137028E68B5D032B00F22D8101A2CF
:1033F00052F823F0C12E0000C12E00004B35000012
:1034000051350000C1A1FF1FF0A0FF1FCCA1FF1F7D
:103410000080FF1FA8A1FF1F44A1FF1F98A1FF1F4D
:10342000D0A1FF1F44A2FF1F74930000C4200740D7
:10343000C8200740CC200740D0200740C0A1FF1F74
:1034400054A1FF1F00A1FF1F94200740928892B94A
:10345000B14A0D784878157050708D78C87895709D
:10346000D07010680D79157186284D79897955715C
:10347000917100F0A580A949A94E0A78307882F0B0
:103480000105002842F002020D700CBF8821C821FE
:1034900049F8321009EBC20280F0010000213070BF
:1034A0005160D4E540F20232914240F08D80A9880B
:1034B00001F07F01042900F292806A88002A40F01E
:1034C0008E809848CDF804E089000844017841F0E6
:1034D0000201017041E742F2212081427BD1A9889B
:1034E000002940F0E480904B904A9148AC781D68E8
:1034F0001560CDF804E00A4604702EE78D4B8E4827
:1035000086491A614FF0020E80F800E0854F0A707C
:103510008A49196099608A4E8A4D8B4C9A610D21B7
:103520003970FF213170DFF840E229702270874D39
:10353000874A8EF800109F27012406F8047C5D60FE
:103540000470DA6007B0BDE8F08F00238B55B7E454
:1035500001238B55B4E44FF0000388F80030B7E640
:103560007049784B80220D2008701A70A2077FF5F1
:10357000B7ADAEE5774C4FF0020E22706270EA886C
:10358000724580F0A38165490D78402A944645F044
:10359000020E28BF4FF0400C04EB0C0309EBCE00E9
:1035A0000293012344604FEA0C48CCEB02000193E4
:1035B0000022C824E4E6684A664C12782270DEE7EE
:1035C000664A0F21117056E7B1F5A06F07D10123AC
:1035D00000220193C1E642F221329142F7D0514AD2
:1035E0000F231370544A0123137025E540287FF6FA
:1035F000DAAE44F002040EEBC401029E4E60BAB192
:103600009DF80410564A19703346403888F8005027
:1036100040334EF83420DFE69DF804303370020466
:10362000029B0D7042F0C80203444EF83C20D0E6E5
:103630009DF804101970029B404A88F800504038E9
:1036400040334EF83420C7E619F0080F0CBF0223B0
:1036500003238B5534E4A98801F07F010429BED8E7
:103660006A88002ABBD12F48CDF804E089000844BD
:10367000017821F0020101706FE63A4A5468002C8B
:10368000ADD06888B5F804E003E00C325468002C33
:10369000A5D013888342F8D153887345F5D1000A29
:1036A00003280CBF94F800E0B2F808E067E7CDF813
:1036B00004E052E64FF0020E61E700F079F90028CD
:1036C00000F0F18008301D4AC4F88400C4F880205E
:1036D00000F06EF9002800F0E0800830204AC9F8B8
:1036E0008C00C9F888202FE600F062F9002800F06D
:1036F000E6800830114AC8F86400C8F8602000F07D
:1037000057F9002800F0D5800830154AC9F86C0038
:10371000C9F868200CE600BF4CA2FF1FC0A1FF1F24
:1037200054A1FF1FC0200740909EFF1F54A2FF1FFF
:10373000E4A1FF1F0080FF1F942007408800400085
:1037400088200740802007409820074004A1FF1FE1
:1037500058A1FF1FC4A1FF1FCCA1FF1F55A1FF1F30
:10376000C8004000789300008C20074000F020F94A
:10377000002800F08C8008305D4AC8F84400C8F882
:10378000402000F015F900287BD00830594AC9F8CC
:103790004C00C9F84820BEE500F00AF900286AD0BC
:1037A0000830534AC9F82400C9F8202000F000F975
:1037B00000285AD008304F4AC9F82C00C9F82820F0
:1037C0009BE5D1F89C00083800F012F93DE5D1F8EE
:1037D0009400083800F00CF931E5C86D083800F0A5
:1037E00007F902E5486D083800F002F9F7E4C86C03
:1037F000083800F0FDF8ECE4486C083800F0F8F800
:10380000E1E4C86B083800F0F3F8D6E4486B0838F8
:1038100000F0EEF8CBE4C86A083800F0E9F8C0E43C
:10382000606A083800F0E4F8B5E4C86F083800F0C2
:10383000DFF8F2E4486F083800F0DAF8E7E4C86E21
:10384000083800F0D5F8DCE4486E083800F0D0F80D
:10385000D1E4D1F88C00083800F0CAF8E9E4D1F8D6
:103860008400083800F0C4F8DDE42A78C9F828009C
:1038700001322A7041E52A78C9F8200001322A7005
:1038800094E72A78C9F8480001322A7043E52A787B
:10389000C8F8400001322A7073E72A78C9F8880016
:1038A00001322A7050E52A78C4F8800001322A706B
:1038B0000EE72A78C9F8680001322A7038E52A78BC
:1038C000C8F8600001322A7019E700BEBEF1400F4F
:1038D000F44628BF4FF0400C04EB0C030293012385
:1038E000CCEB0E004FEA0C48002201933AE500BFF2
:1038F00088004000C80040002DE9F843204C00F04B
:10390000ADFC002204F1A00023461A605A6008337F
:1039100083424FF00001F8D11A4A1B4F13681B4D28
:103920001B481C4EDFF87880DFF878C0DFF878900D
:10393000DFF878E043F480231360C4F307233B707F
:10394000C4F307432B70240EFF2302F528320470C2
:10395000114D88F8003011488CF80030D4323370A3
:10396000012389F8003070268EF800104FF400749F
:10397000102107F8183C2E7004601170BDE8F88320
:103980000080FF1F348004409C200740B020074087
:10399000B42007401020074049E400E008E100E0BF
:1039A00080200740882007409420074000210740DE
:1039B00072B60D480268B2FA82F30B2B10DC4FF09E
:1039C0000041D94022EA0102026062B6074803EBD7
:1039D000C303DB00C2180021C1501046516070477C
:1039E00062B60020704700BFF489FF1FBC83FF1F31
:1039F0000D4B0E4AC31AA2FB03231B090B2B0CD839
:103A00000B4A127852B972B60A484FF00041026868
:103A100021FA03F31A43026062B67047064A12782D
:103A2000002AF0D0FFF75CB9BC83FF1F398EE33862
:103A3000C1A1FF1FF489FF1FCCA1FF1F38B50F4D97
:103A4000286878B143880288C118013393420C7A00
:103A500002D24380204638BDFFF7CAFF002320462C
:103A60002B6038BD064B1B782BB10320FFF704F900
:103A700028600028E6D14FF0FF3038BDE0A1FF1FDD
:103A8000CCA1FF1F10B5094C206818B14388184419
:103A9000007A10BD064B1B782BB10320FFF7ECF822
:103AA00020600028F2D14FF0FF3010BDE0A1FF1FD1
:103AB000CCA1FF1F044B054A1B6890881BB11A88D4
:103AC0005B88D31A18447047E0A1FF1F44A2FF1F70
:103AD0000B4B1B789BB110B50A4C206848B1FFF71F
:103AE00087FF002303202360FFF7C6F830B1FFF7FC
:103AF0007FFF0320FFF7C0F80028F8D110BD704702
:103B0000CCA1FF1FE0A1FF1F2DE9F04FDFF8F890D7
:103B100083B0012289F80020019169B3DFF8EC80BD
:103B2000364F019E8346D8F80000B0B3344D448828
:103B3000C4F14001B14228BF314604EB010E00221E
:103B40001FFA8EFE2A70761AA0F802E000F1080231
:103B500051B1013C224459441BF8014B02F8014F7A
:103B60008B45F9D1B0F802E0BEF13F0F0BD8254AE2
:103B700005211170002ED6D10198002389F800305C
:103B800003B0BDE8F08F4022028001460420FFF719
:103B90000BF90022C8F80020E9E73A782AB3184D5B
:103BA0004AF2F9244FF0010A07E0013C16D02A78C6
:103BB000A2B900F047FA3A78BAB10420FFF77AF8D0
:103BC0000728F2D889F800A0FFF7F2FEC8F8000035
:103BD0000028ACD10C4B013C1870E8D101234FF008
:103BE000FF302B7003B0BDE8F08F00234FF0FF30A3
:103BF00089F8003003B0BDE8F08F00BFCCA1FF1FF3
:103C0000DCA1FF1FD4A1FF1FD5A1FF1FD8A1FF1F5B
:103C100000B583B002AB012103F8010D1846FFF790
:103C200073FF03B05DF804FB38B50E4D0E4C2868E9
:103C30000123237028B1408800232370C0F1400085
:103C400038BD0A4B1B7813B90020207038BD042002
:103C5000FFF730F80728F7D8FFF7AAFE28600028FA
:103C6000E9D1F1E7D8A1FF1FD5A1FF1FCCA1FF1F0C
:103C7000F8B5114B1B788BB1104E114D34680127EC
:103C80002F7064B10F4A6388002717702146238084
:103C90000420FFF789F8376000232B70F8BDFFF789
:103CA00087FE084B28B1014604201C70FFF77CF802
:103CB000F2E71F70F0E700BFCCA1FF1FD8A1FF1FE4
:103CC000D5A1FF1FD4A1FF1F38B50E4B1B7873B9C8
:103CD0000D4C216861B103F0FF054B880B80042077
:103CE000FFF762F8256038BD084B01221A7038BD15
:103CF000FFF75EFE0028F7D00146BDE838400420FB
:103D0000FFF752B8D5A1FF1FD8A1FF1FD4A1FF1FF5
:103D100070B5EFF3108272B60C4C206880B10C4E77
:103D200000254369236073B19D6102B962B645778E
:103D300083689847EFF3108272B620680028F0D1AC
:103D400002B962B670BD3360EFE700BFE8A1FF1FA4
:103D5000ECA1FF1FFFF7DCBF024A136801331360B9
:103D6000704700BF909EFF1F0368C9B21B681847C9
:103D70000368C9B21B6818470368C9B21B681847B3
:103D80000368C9B21B6818474B0803F1376303F592
:103D9000D83310B50446B3FBF1F0FEF705FC044B35
:103DA0001B7803B110BD2046BDE8104000F098BA62
:103DB0000C8AFF1F08B50846FEF7C4FD012008BDA8
:103DC00008B50846FEF7BEFD012008BD38B5084617
:103DD0000D4601F075FD044601462846FEF7BCFD80
:103DE000204638BD10B5084614461146FEF7B4FD0E
:103DF000204610BDFEF792BE08B50846FEF77AFDD4
:103E0000003018BF012008BD08B50846FEF750FD78
:103E1000003018BF012008BD08461146FEF7E4BC7B
:103E20000846FEF71BBD00BF0846FEF7C1BC00BF39
:103E3000FEF75CBC10B54B0803F13760144600F583
:103E4000D830B0FBF1F0FEF7AFFB2046BDE81040E4
:103E5000FEF720BCFEF748BEFEF710BEFEF7FEBD23
:103E6000FEF7DEBDFEF7E8BDF8B50E4671B17AB1DA
:103E70000746144600253B6816F8011B1B683846A8
:103E80009847013C0544F6D12846F8BD0846F8BDE0
:103E90001046F8BD00B5064A036812885B6883B017
:103EA00001A9ADF804200222984703B05DF804FB95
:103EB00048930000F0B507468BB0002A33D0012AA2
:103EC00008BF0A2251B3212400E0F4B2B1FBF2F59D
:103ED00002FB1511C8B2092900F1300198BFC8B220
:103EE0000AA988BF3730214488BFC0B201F8240C2A
:103EF000661E2946002DE8D133B1013CE4B20AAB7D
:103F000023442D2203F8242C3B6801AA11195B6875
:103F10003846C4F1220298470BB0F0BD30228DF82C
:103F200025202124E8E70368C9B21B6898470BB035
:103F3000F0BD00BF10B50446006800F0CBFE20467F
:103F400010BD00BF38B543688B4201D3012038BD96
:103F50000D4604460131006801F048FA0028F6D009
:103F6000A36884E82100002BF0D10370EEE700BFC6
:103F7000F8B50446154632B9036803B11A70002338
:103F8000A3602046F8BD0E461146FFF7DBFF07464B
:103F900048B9206810B100F09DFE276000236360DF
:103FA000A3602046F8BDA5603146206801F028FCDA
:103FB000E7E700BF38B50023044603604360836031
:103FC000037341B108460D4601F07AFC29460246CA
:103FD0002046FFF7CDFF204638BD00BF814203D009
:103FE0008A680968FFF7C4BF704700BF83688B42C7
:103FF00003D9006808B108447047024900230B70D8
:1040000008467047F9A1FF1F08B5FCF797FEFCF7BB
:10401000FDFD00F017F8FAE7704700BFFFF758BD45
:10402000FFF730BDFFF70ABDFFF744BDFFF720BE25
:10403000FFF7FABD08461146FFF766BD0846FFF7D1
:10404000E7BD00BF2DE9F843314E337893B1314FCE
:104050003A787AB90122D9073A7036D49A0719D436
:1040600000225B073A7005D52B4B1A6812B1EFF3AB
:1040700005820AB1BDE8F883EFF3108172B61868C3
:1040800018B1264C2278002A2ED00029F2D162B62F
:10409000BDE8F883DFF8908098F80020002ADFD090
:1040A000DFF88890002405E0013498F80030E4B28D
:1040B000A34212D959F824502B6828461B69984707
:1040C0000028F1D02B699847EEE7FFF7F3FCC8B959
:1040D000134B1B781BB93378C0E73378C0E73378CC
:1040E00003F0FE033370B9E745691D6001232370B7
:1040F0005DB1AA6101B962B600254577836898472A
:104100002570B7E700F002F9E2E7064B1D60F1E722
:10411000208AFF1FFAA1FF1FF4A1FF1FF8A1FF1FB4
:10412000968AFF1FF0A1FF1F0CA2FF1F00A2FF1F16
:1041300030B42948294A2A4B2A4D6024E1210470D1
:1041400011701B78284C082B30D00A2B274828499F
:1041500037D00C2B0CBF35223D2212232A6023605E
:1041600002600B60234B24491B78244ABBB1012316
:104170000B601360224B23491B78234A012B26D95D
:10418000042B0FD9082B1ED9102B94BF862387230D
:104190000B6013601D4B01221A7030BC70470B601E
:1041A0001360E7E784230B601360F3E700F58E20CC
:1041B0000F490830012213232A60236002600B603C
:1041C000D0E73922F7E785230B601360E2E780230D
:1041D0000B601360DEE700BF00400740014007406E
:1041E000218AFF1F08B003400CB0034008B00B4009
:1041F0000CB00B40FCA1FF1F20B0034020B00B40CF
:10420000228AFF1F24B0034024B00B40FBA1FF1FF4
:10421000F0B44D1E2E46002400E00134B0FBF2F352
:1042200002FB1300092800F130078ABF3730F8B2CB
:10423000C0B206F8010F1846002BEED10A195370D0
:104240004CB1107815F8016F28700133E01A8342E1
:1042500002F80169F5DB0846F0BC704770B584B020
:1042600072B6194B194D1A48702241260F2480212D
:104270001A702E701A460470197013781B06FCD53C
:10428000144B186862B6144B144C984298BF00EB5C
:10429000800001A998BF40000A22FFF7B9FF01A9D9
:1042A0002046002311F8012B01333AB10A2B20F8E4
:1042B000022FF7D11623237004B070BD5B00DBB270
:1042C000237004B070BD00BF000002400700024030
:1042D00006000240080002407F969800808AFF1F77
:1042E00030B40749074C0A782378074D42F00202A0
:1042F00045F823000A700133237030BC704700BFBB
:10430000208AFF1F0CA2FF1F00A2FF1F704700BFE3
:104310000B460146184600F0A1BC00BF81F00041E9
:1043200002E000BF83F0004330B54FEA41044FEA9A
:10433000430594EA050F08BF90EA020F1FBF54EA35
:10434000000C55EA020C7FEA645C7FEA655C00F0D1
:10435000E2804FEA5454D4EB5555B8BF6D420CDDA2
:104360002C4480EA020281EA030382EA000083EA25
:10437000010180EA020281EA0303362D88BF30BDC5
:1043800011F0004F4FEA01314FF4801C4CEA11311B
:1043900002D0404261EB410113F0004F4FEA03337A
:1043A0004CEA133302D0524263EB430394EA050F05
:1043B00000F0A780A4F10104D5F1200E0DDB02FA74
:1043C0000EFC22FA05F2801841F1000103FA0EF208
:1043D000801843FA05F359410EE0A5F120050EF1CE
:1043E000200E012A03FA0EFC28BF4CF0020C43FAFF
:1043F00005F3C01851EBE37101F0004507D54FF00C
:10440000000EDCF1000C7EEB00006EEB0101B1F55B
:10441000801F1BD3B1F5001F0CD349085FEA3000A1
:104420004FEA3C0C04F101044FEA445212F5800FAC
:1044300080F09A80BCF1004F08BF5FEA500C50F149
:10444000000041EB045141EA050130BD5FEA4C0C2C
:10445000404141EB010111F4801FA4F10104E9D1B5
:1044600091F0000F04BF01460020B1FA81F308BFAC
:104470002033A3F10B03B3F120020CDA0C3208DD78
:1044800002F1140CC2F10C0201FA0CF021FA02F153
:104490000CE002F11402D8BFC2F1200C01FA02F1C3
:1044A00020FA0CFCDCBF41EA0C019040E41AA2BFE8
:1044B00001EB0451294330BD6FEA04041F3C1CDAB0
:1044C0000C340EDC04F11404C4F1200220FA04F0D0
:1044D00001FA02F340EA030021FA04F345EA03017A
:1044E00030BDC4F10C04C4F1200220FA02F001FA3C
:1044F00004F340EA0300294630BD21FA04F02946BE
:1045000030BD94F0000F83F4801306BF81F4801156
:104510000134013D4EE77FEA645C18BF7FEA655CC9
:1045200029D094EA050F08BF90EA020F05D054EA9B
:10453000000C04BF1946104630BD91EA030F1EBFA0
:104540000021002030BD5FEA545C05D140004941A4
:1045500028BF41F0004130BD14F580043CBF01F597
:10456000801130BD01F0004545F0FE4141F470017D
:104570004FF0000030BD7FEA645C1ABF1946104658
:104580007FEA655C1CBF0B46024650EA013406BF59
:1045900052EA033591EA030F41F4002130BD00BF18
:1045A00090F0000F04BF0021704730B54FF48064D5
:1045B00004F132044FF000054FF0000150E700BF56
:1045C00090F0000F04BF0021704730B54FF48064B5
:1045D00004F1320410F0004548BF40424FF00001A2
:1045E0003EE700BF42004FEAE2014FEA31014FEAE5
:1045F00002701FBF12F07F4393F07F4F81F0605134
:10460000704792F0000F14BF93F07F4F704730B5A2
:104610004FF4607401F0004521F0004120E700BF35
:1046200050EA010208BF704730B54FF000050AE0BC
:1046300050EA010208BF704730B511F0004502D5BD
:10464000404261EB41014FF4806404F132045FEABF
:10465000915C3FF4DCAE4FF003025FEADC0C18BF64
:1046600003325FEADC0C18BF033202EBDC02C2F15A
:10467000200300FA03FC20FA02F001FA03FE40EAEC
:104680000E0021FA02F11444C1E600BF70B54FF0EC
:10469000FF0C4CF4E06C1CEA11541DBF1CEA1355CE
:1046A00094EA0C0F95EA0C0F00F0DEF82C4481EA36
:1046B000030621EA4C5123EA4C5350EA013518BF56
:1046C00052EA033541F4801143F4801338D0A0FB43
:1046D00002CE4FF00005E1FB02E506F00042E0FBF0
:1046E00003E54FF00006E1FB03569CF0000F18BFF6
:1046F0004EF0010EA4F1FF04B6F5007F64F540749E
:1047000004D25FEA4E0E6D4146EB060642EAC62130
:1047100041EA55514FEAC52040EA5E504FEACE2E9D
:10472000B4F1FD0C88BFBCF5E06F1ED8BEF1004FA0
:1047300008BF5FEA500E50F1000041EB045170BD1C
:1047400006F0004646EA010140EA020081EA030160
:10475000B4EB5C04C2BFD4EB0C0541EA045170BD5C
:1047600041F480114FF0000E013C00F3AB8014F1D6
:10477000360FDEBF002001F0004170BDC4F100041F
:10478000203C35DA0C341BDC04F11404C4F12005A0
:1047900000FA05F320FA04F001FA05F240EA0200FB
:1047A00001F0004221F0004110EBD37021FA04F631
:1047B00042EB06015EEA430E08BF20EAD37070BDEB
:1047C000C4F10C04C4F1200500FA04F320FA05F04A
:1047D00001FA04F240EA020001F0004110EBD3704C
:1047E00041F100015EEA430E08BF20EAD37070BDBC
:1047F000C4F1200500FA05F24EEA020E20FA04F395
:1048000001FA05F243EA020321FA04F001F0004143
:1048100021FA04F220EA020000EBD3705EEA430EB4
:1048200008BF20EAD37070BD94F0000F0FD101F0E3
:104830000046400041EB010111F4801F08BF013C1C
:10484000F7D041EA060195F0000F18BF704703F05A
:104850000046520043EB030313F4801F08BF013DE1
:10486000F7D043EA0603704794EA0C0F0CEA13559D
:1048700018BF95EA0C0F0CD050EA410618BF52EA57
:104880004306D1D181EA030101F000414FF000005D
:1048900070BD50EA410606BF1046194652EA43066B
:1048A00019D094EA0C0F02D150EA013613D195EADF
:1048B0000C0F05D152EA03361CBF104619460AD127
:1048C00081EA030101F0004141F0FE4141F4700131
:1048D0004FF0000070BD41F0FE4141F4780170BD21
:1048E00070B54FF0FF0C4CF4E06C1CEA11541DBF86
:1048F0001CEA135594EA0C0F95EA0C0F00F0A7F888
:10490000A4EB050481EA030E52EA03354FEA0131B4
:1049100000F088804FEA03334FF0805545EA1313C7
:1049200043EA12634FEA022245EA111545EA10658F
:104930004FEA00260EF000419D4208BF964244F126
:10494000FD0404F5407402D25B084FEA3202B61A45
:1049500065EB03055B084FEA32024FF480104FF419
:10496000002CB6EB020E75EB030E22BFB61A75468D
:1049700040EA0C005B084FEA3202B6EB020E75EB20
:10498000030E22BFB61A754640EA5C005B084FEA88
:104990003202B6EB020E75EB030E22BFB61A754655
:1049A00040EA9C005B084FEA3202B6EB020E75EB60
:1049B000030E22BFB61A754640EADC0055EA060E21
:1049C00018D04FEA051545EA16754FEA06164FEA64
:1049D000C30343EA52734FEAC2025FEA1C1CC0D110
:1049E00011F4801F0BD141EA00014FF000004FF09D
:1049F000004CB6E711F4801F04BF01430020B4F15E
:104A0000FD0C88BFBCF5E06F3FF6AFAEB5EB030C15
:104A100004BFB6EB020C5FEA500C50F1000041EB12
:104A2000045170BD0EF0004E4EEA113114EB5C04DF
:104A3000C2BFD4EB0C0541EA045170BD41F48011B2
:104A40004FF0000E013C90E645EA060E8DE60CEABA
:104A5000135594EA0C0F08BF95EA0C0F3FF43BAFD7
:104A600094EA0C0F0AD150EA01347FF434AF95EA8E
:104A70000C0F7FF425AF104619462CE795EA0C0F72
:104A800006D152EA03353FF4FDAE1046194622E73F
:104A900050EA410618BF52EA43067FF4C5AE50EA19
:104AA00041047FF40DAF52EA43057FF4EBAE12E709
:104AB0004FF0FF3C06E000BF4FF0010C02E000BFEA
:104AC0004FF0010C4DF804CD4FEA410C7FEA6C5CCD
:104AD0004FEA430C18BF7FEA6C5C1BD001B050EA70
:104AE000410C0CBF52EA430C91EA030F02BF90EA5B
:104AF000020F0020704710F1000F91EA030F58BF1A
:104B0000994208BF90422CBFD8176FEAE37040F07B
:104B1000010070474FEA410C7FEA6C5C02D150EA19
:104B2000013C07D14FEA430C7FEA6C5CD6D152EAD4
:104B3000033CD3D05DF8040B704700BF8446104699
:104B400062468C461946634600E000BF01B5FFF798
:104B5000B7FF002848BF10F1000F01BD4DF808ED68
:104B6000FFF7F4FF0CBF012000205DF808FB00BF39
:104B70004DF808EDFFF7EAFF34BF012000205DF893
:104B800008FB00BF4DF808EDFFF7E0FF94BF0120E0
:104B900000205DF808FB00BF4DF808EDFFF7CEFFE1
:104BA00094BF012000205DF808FB00BF4DF808ED20
:104BB000FFF7C4FF34BF012000205DF808FB00BFF1
:104BC0004FEA410C7FEA6C5C02D150EA013C0AD109
:104BD0004FEA430C7FEA6C5C02D152EA033C02D1FB
:104BE0004FF0000070474FF001007047024B0A463B
:104BF0000146186800F002B8C08EFF1F10B502FB16
:104C000001F100F06FF80446D8B150F8042C22F0FE
:104C10000302043A242A18D8132A14D900231B2A81
:104C20000360436016D9242A8360C36011BF00F17A
:104C300010020361436100F1180200231360536006
:104C40009360204610BD0246F7E7002100F07CFB90
:104C5000204610BD00F10802EFE700BF13460A46E8
:104C60000146022000F0F2BE014B1868704700BFF9
:104C7000C08EFF1F70B50F4E0F4D761BB61018BFBC
:104C8000002405D0013455F8043B9847A642F9D1D9
:104C90000A4E0B4D761B04F0DDFCB61018BF002445
:104CA00006D0013455F8043B9847A642F9D170BDAF
:104CB00070BD00BF60960000609600006C9600001A
:104CC00060960000024B0146186800F00BB800BF68
:104CD000C08EFF1F024B0146186800F07BBF00BF6B
:104CE000C08EFF1F2DE9F04F01F10B05162D83B08B
:104CF000064640F29F8035F0070500F1BF80A942CB
:104D000000F2BC8000F06EFBB5F5FC7FC0F09C8229
:104D10006B0A00F0BA80042B00F28381A80900F12D
:104D2000390E4FEA4E033830C44F07EB8303A3F12B
:104D300008015C68A14207D1ACE0002A80F2AC8097
:104D4000E468A14200F0A680636823F003035A1BC5
:104D50000F2AF2DDB9493C6901F1080E744500F0F3
:104D6000B381636823F003035A1B0F2A00F3998170
:104D7000002AC1F814E0C1F810E080F29E80B3F57B
:104D8000007F80F06781DB0803F1010C01229B109A
:104D900002FA03F34A6851F83C80C4F8088001EB3A
:104DA000CC091A43A9F10803E3604A6041F83C408A
:104DB000C8F80C40831001249C40944200F28A8081
:104DC000144206D120F003006400144200F10400F4
:104DD000FAD007EBC009CC468046DCF80C108C45B5
:104DE00007D173E1002A80F28181C9688C4500F007
:104DF0006D814B6823F003035A1B0F2AF2DD0C462A
:104E0000D1F80CC054F8088F4B1945F001054D60DE
:104E100042F00101C8F80CC03046CCF808807B6134
:104E20003B61C3F80CE0C3F808E059609A5000F009
:104E3000DBFA1FE0102921D800F0D4FA1025062350
:104E400002207E4F07EB8303A3F108025C689442C3
:104E500000F045816368E168A56823F003032344FB
:104E600030465A68E96042F001028D605A6000F0F5
:104E7000BBFA0834204603B0BDE8F08F00240C23B1
:104E80002046336003B0BDE8F08F80234FF0400E22
:104E90003F2049E770465DE72344E1685A68A5680A
:104EA00042F00102E96030468D605A6000F09CFAE1
:104EB0000834204603B0BDE8F08F234430465A68DA
:104EC00042F001025A6000F08FFA0834204603B025
:104ED000BDE8F08FBC68636823F00308A84504D3DD
:104EE000C5EB08030F2B00F38C80554BDFF8609166
:104EF0001A68D9F8003001332A4404EB080A00F09C
:104F0000608102F580520F3222F47F6222F00F029C
:104F100011463046019200F061FCB0F1FF3F83463C
:104F2000019A00F05881824500F2FC80454B1968D7
:104F3000DA451144196000F05381D9F80000DFF818
:104F400010E101301BBFCAEB0B0A5144CEF800B090
:104F500019601BF0070100F01781C1F10800C1F5CD
:104F60008051834408315A44C2F30B02C2EB010959
:104F700049463046019300F031FC431C019B00F090
:104F80003F81CBEB00024A4442F001021968C7F8A6
:104F900008B04944BC42CBF804201960DFF8A49063
:104FA00016D0B8F10F0F40F2FD806268A8F10C0333
:104FB00023F00703E01802F001024FF0050E1A4338
:104FC0000F2B6260C0F804E0C0F808E000F21C811A
:104FD0001D4BBC681A68914288BF19601B4B1A6848
:104FE0009142626888BF196022F003029542A2EBE9
:104FF000050301D80F2B04DC304600F0F5F900243E
:1050000038E7621943F0010345F001056560304659
:10501000BA60536000F0E8F90834204603B0BDE8F8
:10502000F08F142B71D9542B00F2A480280B00F1BF
:105030006F0E4FEA4E036E3076E600BF3090FF1FD2
:1050400018A2FF1F1CA2FF1F14A2FF1F10A2FF1F08
:105050003C94FF1F5A0A042A5ED9142A00F2B38036
:1050600002F15C0149005B3207EB810C57F821101B
:10507000DFF8DC81ACF1080C8C4500F088804A68D0
:1050800022F00302934202D289688C45F7D1D1F80D
:105090000CC07A68C4F80CC0A160CCF80840CC60A1
:1050A00088E6631942F0010745F001056560304666
:1050B0004B610B61C3F80CE0C3F808E05F609A50E5
:1050C000083400F091F9D5E64A6873E608F1010862
:1050D00018F0030F0CF1080C7FF47FAE30E0DC68B1
:1050E000A34208BF02303FF435AEB3E60B440C4692
:1050F0005A68C96854F8085F42F001025A603046A5
:10510000E9608D6000F070F9B4E603F15C0E03F124
:105110005B004FEA4E0307E69A0902F139014900A4
:105120003832A1E7BC424A4B3FF400AF9C6862684A
:1051300022F003025AE759F80839994540F0828075
:1051400010F0030F00F1FF30F5D17B6823EA040370
:105150007B6064009C423FF6BDAE002C3FF4BAAECB
:105160001C4240467FF435AE64001C4200F104004E
:10517000FAD02EE6B3F5AA7F18D8E80B00F1780E26
:105180004FEA4E037730CFE54FF48051EBE6012133
:10519000D8F80430921001FA02F21A43C8F8042039
:1051A000614677E70123CBF8043025E740F25452FB
:1051B000934220D8A80C00F17D0E4FEA4E037C30BC
:1051C000B2E51032A4E6542A26D81A0B02F16F0178
:1051D00049006E3248E7BC68626822F0030205E7C6
:1051E000CAF30B0000287FF4A8AE4244BB6842F02B
:1051F00001025A60ECE6FE234FF07F0E7E2093E51D
:1052000001224FF00009C1E604F10801304600F028
:10521000E1FCD9F80010DBE6B2F5AA7F05D8DA0B7D
:1052200002F17801490077321EE740F254518A4278
:1052300005D89A0C02F17D0149007C3214E7FE2169
:105240007E2211E77B6884E7E808431C5B00F8E5F1
:105250003090FF1F82B049B15AB16BB113780B6027
:105260001278101C18BF012002B0704701A9002A53
:10527000F3D1104602B070476FF00100F4E700BFB1
:105280008842F0B50DD98B1898420AD28118002AAD
:1052900051D09A1A13F8014D01F8014D9342F9D1FA
:1052A000F0BD0F2A48D941EA00039B0746D100F11F
:1052B000100401F11003154653F8106C44F8106CFB
:1052C00053F80C6C44F80C6C53F8086C44F8086CF8
:1052D000103D53F8046C44F8046C0F2D03F11003D7
:1052E00004F11004E8D8A2F1100323F00F0302F038
:1052F0000F0E1033BEF1030F1944034421D91E1FB2
:105300000D467446043C55F8047B46F8047F032C94
:10531000F8D8AEF1040424F00304043423442144F7
:1053200002F0030262B1013B0A4411F8014B03F899
:10533000014F8A42F9D1F0BD0346F3E70346F2E795
:10534000F0BD7246EEE700BF70B4840746D0541E2D
:10535000002A41D0CDB2034602E0621EE4B31446F7
:1053600003F8015B9A07F8D1032C2ED9CDB245EA98
:1053700005250F2C45EA054519D903F110022646EB
:10538000103E0F2E42F8105C42F80C5C42F8085CAC
:1053900042F8045C02F11002F2D8A4F1100222F0EB
:1053A0000F0204F00F041032032C13440DD91E46D3
:1053B0002246043A032A46F8045BFAD8221F22F058
:1053C00003020432134404F003042CB1C9B21C4498
:1053D00003F8011BA342FBD170BC7047144603467F
:1053E000C2E700BF704700BF704700BF024B0A46CC
:1053F0000146186800F002B8C08EFF1F2DE9F04F7B
:10540000174683B0002900F0C1800E46814607F19F
:105410000B05FFF7E7FF56F804EC162D2EF00304FA
:10542000A6F1080840D810221546AF4241D8944250
:1054300075DAC94B996808EB04008842416800F0AE
:10544000D98021F0010303445B68DB077DD51EF0A2
:10545000010F35D039464846FFF744FC0746E0B116
:1054600056F8043C23F001034344A0F108029A4299
:1054700000F04481221F242A00F23181132A00F215
:105480000481034632461168196051685960926878
:105490009A603146484600F09DFB4846FFF7A4FF5E
:1054A000384603B0BDE8F08F25F00705002D2A46E9
:1054B000BBDA0C230020C9F8003003B0BDE8F08F40
:1054C00056F8083CC3EB080ADAF8043023F0030C62
:1054D00004EB0C039342BDDB5746DAF80C1057F887
:1054E000080F221F242AC160886000F21781132A46
:1054F00040F212813168CAF808107168CAF80C10BD
:105500001B2A00F22B8108360AF110023168116063
:1055100071685160B16891603E461C46D046631B7D
:105520000F2B1DD8D8F8043003F001032343444463
:10553000C8F80430636843F0010363604846FFF72E
:1055400053FF304603B0BDE8F08F21F00301214442
:10555000914221DBC36882680C46D3609A60DEE723
:10556000D8F8042008EB050102F00102154343F0CE
:1055700001020B44C8F804504A605A6842F0010224
:1055800008315A60484600F025FBD7E7114603B0C2
:10559000BDE8F04FFFF7A6BB1EF0010F7FF45AAF36
:1055A00056F8083CC3EB080ADAF8043023F0030C81
:1055B00001EB0C0E96458BDBC36882685746D360BF
:1055C0009A6057F8081FDAF80C30CB60221F242AA3
:1055D000996000F29980132A62D93368CAF80830BA
:1055E0007368CAF80C301B2A00F2A08008360AF152
:1055F000100356E021F0030BA34405F1100083458E
:1056000059DA1EF0010F7FF425AF56F8081CC1EBE4
:10561000080ADAF8041021F0030CE34458453FF778
:1056200057AF5746DAF80C1057F8080F221F242AF4
:10563000C160886000F2B480132A40F2A58031680E
:10564000CAF808107168CAF80C101B2A00F2AF8063
:1056500008360AF110023168116071685160B16852
:1056600091600AEB0501C5EB0B0242F00102996063
:105670004A60DAF8043003F001031D434846CAF8D3
:105680000450FFF7B1FE38465CE733680360736887
:1056900043601B2A27D800F1080306F10802F2E64E
:1056A0003B4632681A6072685A60B2689A603E4639
:1056B0007446D04633E708EB0501C5EB0B0B4BF006
:1056C000010299604A6056F8043C03F001031D434F
:1056D000484646F8045CFFF787FE304632E731461D
:1056E000FFF7CEFDD5E6B3688360F368C360242A74
:1056F00028D000F1100306F11002C4E650F8043C73
:1057000023F003031C440AE7314638467446D0466A
:10571000FFF7B6FD3E4602E73A46F7E63146384621
:105720001C46D046FFF7ACFD3E46F8E6B368CAF823
:105730001030F368CAF81430242A1BD010360AF14E
:105740001803AEE7336903617369436106F1180218
:1057500000F1180397E600BF3090FF1FB168CAF848
:105760001010F168CAF81410242A0FD010360AF16C
:105770001802CBE63369CAF818307369CAF81C30CE
:1057800018360AF120038CE73A4664E73269CAF812
:1057900018207269CAF81C2018360AF12002B5E6F2
:1057A000314638460193FFF76BFD019B59E7B1681D
:1057B000CAF81010F168CAF81410242A03D0103661
:1057C0000AF1180247E73269CAF818207269CAF864
:1057D0001C2018360AF120023DE700BF38B5074CFF
:1057E0000023054608462360FCF72CFC431C00D030
:1057F00038BD2368002BFBD02B6038BD58A2FF1F9B
:1058000080EA0102844612F0030F4FD111F0030F1A
:1058100032D14DF8044D11F0040F51F8043B0BD078
:10582000A3F101329A4312F0803F04BF4CF8043BCD
:1058300051F8043B16D100BF51F8044BA3F10132DB
:105840009A4312F0803FA4F101320BD14CF8043B93
:10585000A24312F0803F04BF51F8043B4CF8044BC4
:10586000EAD023460CF8013B13F0FF0F4FEA332335
:10587000F8D15DF8044B704711F0010F06D011F814
:10588000012B0CF8012B002A08BF704711F0020F02
:10589000BFD031F8022B12F0FF0F16BF2CF8022BED
:1058A0008CF8002012F47F4FB3D1704711F8012B10
:1058B0000CF8012B002AF9D1704700BFFFFFFFFF52
:1058C00090F800F06DE9024520F007016FF0000C40
:1058D00010F0070491F820F040F049804FF00004E8
:1058E0006FF00700D1E9002391F840F000F10800C3
:1058F00082FA4CF2A4FA8CF283FA4CF3A2FA8CF3FB
:105900004BBBD1E9022382FA4CF200F10800A4FA61
:105910008CF283FA4CF3A2FA8CF3E3B9D1E90423B5
:1059200082FA4CF200F10800A4FA8CF283FA4CF3EC
:10593000A2FA8CF37BB9D1E9062301F1200182FAA6
:105940004CF200F10800A4FA8CF283FA4CF3A2FAAC
:105950008CF3002BC6D0002A04BF04301A4612BABA
:10596000B2FA82F2FDE8024500EBD2007047D1E9BD
:10597000002304F00305C4F100004FEAC50514F04C
:10598000040F91F840F00CFA05F562EA05021CBF1D
:1059900063EA050362464FF00004A9E770B5002AE8
:1059A0009AB005462FDB14461A464FF40273009155
:1059B0000491ADF80C3011D0013C4FF6FF761E9BE0
:1059C000029469460594ADF80E6000F057FD421C44
:1059D00012DB009B00221A701AB070BD1E9B02944D
:1059E0004FF6FF7669460594ADF80E6000F046FD6F
:1059F000431C04DB1AB070BD8B232B60E9E78B23BB
:105A00002B601AB070BD8B2303604FF0FF30F1E7BD
:105A100010B582B0054C0093246813460A4601462F
:105A20002046FFF7BBFF02B010BD00BFC08EFF1FB6
:105A300021B1FF2A04D80A70012070470846704738
:105A40008A2303604FF0FF30704700BF2DE9F04715
:105A5000254C2568D5F84841064688469246994621
:105A6000C4B360681F2817DC431C76B104EB8005C3
:105A70000122C5F888A0D4F8881182401143022E73
:105A8000C4F88811C5F808911ED00230636044F84C
:105A900020800020BDE8F087144B03B34FF4C8709A
:105AA000FFF710F90446D0B1D5F84831002780E857
:105AB0008800C5F8484138460123C4F88871C4F805
:105AC0008C71002EE1D0D1E7D4F88C110A43C4F8D0
:105AD0008C21DAE705F5A674C5F84841C1E74FF017
